:100000000C9462000C948A000C948A000C948A0070
:100010000C948A000C948A000C948A000C948A0038
:100020000C948A000C948A000C948A000C948A0028
:100030000C948A000C948A000C948A000C948A0018
:100040000C9466040C948A000C9434040C940E04F2
:100050000C948A000C948A000C948A000C948A00F8
:100060000C948A000C948A000000000024002700F1
:100070002A0000000000250028002B0000000000DE
:1000800023002600290004040404040404040202DA
:100090000202020203030303030301020408102007
:1000A0004080010204081020010204081020000012
:1000B0000008000201000003040700000000000027
:1000C0000000B00411241FBECFEFD8E0DEBFCDBFCB
:1000D00011E0A0E0B1E0EEE0FDE002C005900D927D
:1000E000A83EB107D9F722E0A8EEB1E001C01D9209
:1000F000A83AB207E1F710E0C2E6D0E004C02197C9
:10010000FE010E947A06C136D107C9F70E94FB049E
:100110000C9485060C940000CF92DF92EF92FF9230
:100120000F931F93CF93DF936C017A018B01C0E093
:10013000D0E0CE15DF0589F0D8016D918D01D60193
:10014000ED91FC910190F081E02DC6010995892B7C
:1001500011F47E0102C02196ECCFC701DF91CF914F
:100160001F910F91FF90EF90DF90CF900895FC01C9
:10017000538D448D252F30E0842F90E0821B930B0C
:10018000541710F0CF96089501970895FC01918DB2
:10019000828D981761F0828DDF01A80FB11D5D96E9
:1001A0008C91928D9F5F9F73928F90E008958FEF57
:1001B0009FEF0895FC01918D828D981731F0828D0B
:1001C000E80FF11D858D90E008958FEF9FEF089562
:1001D000FC01918D228D892F90E0805C9F4F821BC6
:1001E00091098F739927089583EF91E00E94E800A9
:1001F00021E0892B09F420E0822F0895FC01848DF1
:10020000DF01A80FB11DA35ABF4F2C91848D90E040
:1002100001968F739927848FA689B7892C93A0891B
:10022000B1898C9180648C93938D848D981306C0D2
:100230000288F389E02D80818F7D80830895EF927D
:10024000FF920F931F93CF93DF93EC0181E0888F90
:100250009B8D8C8D981305C0E889F989808185FD77
:1002600024C0F62E0B8D10E00F5F1F4F0F73112768
:10027000E02E8C8DE8120CC00FB607FCFACFE8898F
:10028000F989808185FFF5CFCE010E94FE00F1CF74
:100290008B8DFE01E80FF11DE35AFF4FF0820B8FAB
:1002A000EA89FB898081806207C0EE89FF896083CB
:1002B000E889F98980818064808381E090E0DF9122
:1002C000CF911F910F91FF90EF900895CF93DF93FF
:1002D000EC01888D8823C9F0EA89FB89808185FD3E
:1002E00005C0A889B9898C9186FD0FC00FB607FC9F
:1002F000F5CF808185FFF2CFA889B9898C9185FFE0
:10030000EDCFCE010E94FE00E7CFDF91CF9108959F
:1003100080E090E0892B29F00E94F40081110C9478
:1003200000000895833081F028F4813099F0823004
:10033000A1F008958730A9F08830B9F08430D1F465
:10034000809180008F7D03C0809180008F778093A3
:100350008000089584B58F7702C084B58F7D84BDF9
:1003600008958091B0008F7703C08091B0008F7D99
:100370008093B00008951F93CF93DF93282F30E030
:10038000F901E255FF4F8491F901E656FF4FD491F0
:10039000F901EA57FF4FC491CC23C9F0162F811100
:1003A0000E949201EC2FF0E0EE0FFF1FEE58FF4F7E
:1003B000A591B4918FB7F894111105C09C91ED2FC0
:1003C000E095E92302C0EC91ED2BEC938FBFDF9118
:1003D000CF911F910895CF93DF9390E0FC01E656F3
:1003E000FF4F2491FC01EA57FF4F8491882361F16C
:1003F00090E0880F991FFC01E859FF4FC591D491F7
:10040000FC01EE58FF4FA591B491611109C09FB74F
:10041000F8948881209582238883EC912E230BC049
:10042000623061F49FB7F8943881822F80958323DE
:100430008883EC912E2B2C939FBF06C08FB7F89426
:10044000E8812E2B28838FBFDF91CF9108953FB78E
:10045000F8948091ED019091EE01A091EF01B0919F
:10046000F00126B5A89B05C02F3F19F00196A11DEC
:10047000B11D3FBFBA2FA92F982F8827820F911D3A
:10048000A11DB11DBC01CD0142E0660F771F881F81
:10049000991F4A95D1F708958F929F92AF92BF927C
:1004A000CF92DF92EF92FF926B017C010E942702B4
:1004B0004B015C01C114D104E104F104F1F00E948C
:1004C0002702DC01CB0188199909AA09BB09883EDA
:1004D0009340A105B10570F321E0C21AD108E108EB
:1004E000F10888EE880E83E0981EA11CB11CC1148F
:1004F000D104E104F10419F7DDCFFF90EF90DF9014
:10050000CF90BF90AF909F908F900895CF93DF933F
:10051000EC0160E08E810E94BB0161E08E810E944F
:10052000BB0160E08E810E94BB018BE891E00197E6
:10053000F1F7DF91CF910895CF92DF92EF92FF9282
:100540000F931F93CF93DF937C016C0187E0C80E5C
:10055000D11CC0E0D0E0062F10E0B8010C2E02C084
:10056000759567950A94E2F76170F60181916F01C4
:100570000E94BB012196C430D10579F7C701DF91F4
:10058000CF911F910F91FF90EF90DF90CF900C943F
:100590008602CF92DF92EF92FF920F931F93CF9339
:1005A000DF93EC01F62E642F8C810E94BB018D81BC
:1005B0008F3F19F060E00E94BB018F850F2D10E086
:1005C00084FF25C06E0187E0C80ED11CE12CF12C00
:1005D000B8010E2C02C0759567950A94E2F7617018
:1005E000F60181916F010E94BB01FFEFEF1AFF0A34
:1005F00088E0E816F10461F7CE01DF91CF911F91F9
:100600000F91FF90EF90DF90CF900C948602B8018D
:1006100084E0759567958A95E1F7CE010E949C026A
:100620006F2DCE01DF91CF911F910F91FF90EF9031
:10063000DF90CF900C949C0241E00E94C90281E0BF
:1006400090E0089540E00C94C902EF92FF920F935E
:100650001F93CF93DF93EC01623018F08F85886091
:100660008F876B8B1C8A80E48D8B80E18E8B80E57D
:100670008F8B61E08C810E94EB018D818F3F19F09F
:1006800061E00E94EB0161E08E810E94EB017E013E
:1006900087E0E80EF11C00E010E08F8584FD03C0C8
:1006A00084E090E002C088E090E0081719074CF45D
:1006B00061E0F70181917F010E94EB010F5F1F4F05
:1006C000ECCF8BE39DE00197F1F760E08C810E9415
:1006D000BB0160E08E810E94BB018D818F3F19F0CC
:1006E00060E00E94BB016F8564FD1DC063E0CE0128
:1006F0000E949C020BE416E4C8010197F1F763E045
:10070000CE010E949C02C8010197F1F763E0CE017F
:100710000E949C0283E592E00197F1F762E0CE012E
:100720000E949C0216C06062CE010E9422038BE4EC
:1007300096E40197F1F76F856062CE010E94220373
:1007400083E592E00197F1F76F856062CE010E9428
:1007500022036F856062CE010E94220384E0888BB1
:100760006CE0CE010E94220361E0CE010E942203D0
:100770008BE39FE10197F1F782E0898B66E0CE0180
:10078000DF91CF911F910F91FF90EF900C94220376
:10079000643008F063E09091A302691710F06FEFE6
:1007A000690FE62FF0E0E057FD4F9489682F690F3D
:1007B000606880E992E00C942203089580E090E064
:1007C00008950E9480066115710579F0FB01019082
:1007D0000020E9F73197AF01461B570BDC01ED9183
:1007E000FC910280F381E02D099480E090E008956F
:1007F0000C94E30360E080E00E94C8036EE171E0C6
:1008000080E992E00E94F80361E080E00E94C80362
:100810006EE171E080E992E00C94F8031F920F9270
:100820000FB60F9211242F933F934F935F936F93C3
:100830007F938F939F93AF93BF93EF93FF9383EF38
:1008400091E00E94FE00FF91EF91BF91AF919F91C7
:100850008F917F916F915F914F913F912F910F9069
:100860000FBE0F901F9018951F920F920FB60F9208
:1008700011242F938F939F93EF93FF93E0910302A3
:10088000F09104028081E0910902F0910A0282FD58
:1008900012C0908180910C028F5F8F7320910D02A6
:1008A000821751F0E0910C02F0E0ED50FE4F958F71
:1008B00080930C0201C08081FF91EF919F918F91F5
:1008C0002F910F900FBE0F901F9018951F920F92AF
:1008D0000FB60F9211242F933F938F939F93AF9353
:1008E000BF938091E9019091EA01A091EB01B09151
:1008F000EC013091E80123E0230F2D3720F401961D
:10090000A11DB11D05C026E8230F0296A11DB11D32
:100910002093E8018093E9019093EA01A093EB0111
:10092000B093EC018091ED019091EE01A091EF0167
:10093000B091F0010196A11DB11D8093ED0190933E
:10094000EE01A093EF01B093F001BF91AF919F91A1
:100950008F913F912F910F900FBE0F901F90189580
:10096000E3EFF1E01382128288EE93E0A0E0B0E0C2
:1009700084839583A683B78384E091E09183808309
:1009800085EC90E09587848784EC90E09787868754
:1009900080EC90E0918B808B81EC90E0938B828B4C
:1009A00082EC90E0958B848B86EC90E0978B868B25
:1009B000118E128E138E148EE0E9F2E013821282F1
:1009C00086E191E0918380838CE084838FEF85833F
:1009D0008BE0868385E0878384E0808783E081875E
:1009E00082E082871386148615861686178661E054
:1009F000CF010C942503789484B5826084BD84B5BE
:100A0000816084BD85B5826085BD85B5816085BD09
:100A100080916E00816080936E00109281008091C1
:100A20008100826080938100809181008160809349
:100A30008100809180008160809380008091B1006E
:100A400084608093B1008091B00081608093B00099
:100A500080917A00846080937A0080917A0082602D
:100A600080937A0080917A00816080937A008091EF
:100A70007A00806880937A001092C10062E080E979
:100A800092E00E9425030E94FA036FE271E080E980
:100A900092E00E94F803E0910302F091040282E0E8
:100AA0008083E091FF01F09100021082E091010249
:100AB000F09102028FEC808310920B02E09107020A
:100AC000F091080286E08083E0910502F091060231
:100AD000808180618083E0910502F091060280812F
:100AE00088608083E0910502F09106028081806831
:100AF0008083E0910502F091060280818F7D8083E2
:100B000061E08DE00E94EB0160E087E00E94EB0174
:100B100061E08AE00E94EB0160E08AE00E94BB0194
:100B200060E087E00E94BB01C5EBD0E001EA10E085
:100B30003DE8E32E30E0F32EFE018491F801C490ED
:100B4000F701D490DD20A9F081110E9492018D2D32
:100B500090E0880F991F84589F4FFC01A591B49194
:100B60008C91C82231E020E009F430E0832F922FED
:100B700002C080E090E09093F2018093F101019730
:100B800009F041C061E08AE00E94BB010E94FA03C3
:100B900060E080E00E94C80360E471E080E992E0D8
:100BA0000E94F80361E571E083EF91E00E94F80391
:100BB00064E671E083EF91E00E94E30362E671E096
:100BC00083EF91E00E94E30368E873E180E090E046
:100BD0000E944C0260E08AE00E94BB010E94FA037E
:100BE00060E080E00E94C80365E671E080E992E081
:100BF0000E94F80360ED77E080E090E00E944C02F4
:100C00000E94FA0374C064E771E083EF91E00E94F0
:100C1000E30364E671E083EF91E00E94E30362E6A0
:100C200071E083EF91E00E94E30360E087E00E94BF
:100C3000BB010E94FA0360E080E00E94C80362E802
:100C400071E080E992E00E94F80360E081E00E9498
:100C5000C80366E970E080E090E00E944C0263E91E
:100C600071E080E992E00E94F80366E970E080E0BC
:100C700090E00E944C0264EA71E080E992E00E94F8
:100C8000F80366E970E080E090E00E944C0265EBBA
:100C900071E080E992E00E94F80366E970E080E08C
:100CA00090E00E944C0266EC71E080E992E00E94C4
:100CB000F80366E970E080E090E00E944C0267ED86
:100CC00071E080E992E00E94F80366E970E080E05C
:100CD00090E00E944C026EE171E080E992E00E9497
:100CE000F80366E970E080E090E00E944C020E9408
:100CF000880122CFEE0FFF1F0590F491E02D09949B
:0E0D000081E090E0F8940C948506F894FFCF03
:100D0E00000000001F018C00B7006601E800C6005D
:100D1E00DA00000000001C038C00DE03DD0320203F
:100D2E0020202020202020202020202020200020D5
:100D3E006F70656E696E672073657269616C2000F5
:100D4E00202020204558504F53494E472020202028
:100D5E0000696E206578706F73757265206D6F64B3
:100D6E0065000D0A00202020204558504F53454461
:100D7E002020200070696E207374696C6C204C4FBB
:100D8E00570057616974696E6720746F20537461E0
:100D9E0072740020202020202E20202020202020B1
:100DAE002020200020202020202E2E202020202039
:100DBE00202020200020202020202E2E2E2020201B
:100DCE0020202020200020202020202E2E2E2E20FD
:100DDE002020202020200020202020202E2E2E2EED
:080DEE002E202020202020000F
:00000001FF
